:100000000C942A000C943C000C943C000C943C0092
:100010000C943C000C943C000C943C000C943C0070
:100020000C943C000C943E000C943C000C943C005E
:100030000C943C000C943C000C943C000C943C0050
:100040000C943C000C943C000C943C000C943C0040
:100050000C943C0011241FBECFE5D8E0DEBFCDBF1D
:1000600020E0A0E6B0E001C01D92A236B207E1F7A1
:100070000E947C000C9487000C9400001F920F9249
:100080000FB60F9211248F939F93809160009091EF
:100090006100019690936100809360009F918F9121
:1000A0000F900FBE0F901F9018958BB388608BBB7D
:1000B0008AE18A95F1F700C08BB3877F8BBB1DBCAB
:1000C0001CBC81E48EBD80E288BF84E088BF08B696
:1000D00005FEFDCF1DBC1CBC81E08EBD80E288BF4B
:1000E00084E088BF109261001092600008B605FE9F
:1000F000FDCF86B597B5089588E08ABB8FEF8BBB9F
:10010000789484E089BF1FBC0E945500FDCFF8940D
:02011000FFCF1F
:00000001FF
